{
  "contractName": "CrowdProposalFactory",
  "abi": [
    {
      "inputs": [
        {
          "internalType": "address",
          "name": "uni_",
          "type": "address"
        },
        {
          "internalType": "address",
          "name": "governor_",
          "type": "address"
        },
        {
          "internalType": "uint256",
          "name": "uniStakeAmount_",
          "type": "uint256"
        }
      ],
      "stateMutability": "nonpayable",
      "type": "constructor"
    },
    {
      "anonymous": false,
      "inputs": [
        {
          "indexed": true,
          "internalType": "address",
          "name": "proposal",
          "type": "address"
        },
        {
          "indexed": true,
          "internalType": "address",
          "name": "author",
          "type": "address"
        },
        {
          "indexed": false,
          "internalType": "address[]",
          "name": "targets",
          "type": "address[]"
        },
        {
          "indexed": false,
          "internalType": "uint256[]",
          "name": "values",
          "type": "uint256[]"
        },
        {
          "indexed": false,
          "internalType": "string[]",
          "name": "signatures",
          "type": "string[]"
        },
        {
          "indexed": false,
          "internalType": "bytes[]",
          "name": "calldatas",
          "type": "bytes[]"
        },
        {
          "indexed": false,
          "internalType": "string",
          "name": "description",
          "type": "string"
        }
      ],
      "name": "CrowdProposalCreated",
      "type": "event"
    },
    {
      "inputs": [],
      "name": "governor",
      "outputs": [
        {
          "internalType": "address",
          "name": "",
          "type": "address"
        }
      ],
      "stateMutability": "view",
      "type": "function"
    },
    {
      "inputs": [],
      "name": "uni",
      "outputs": [
        {
          "internalType": "address",
          "name": "",
          "type": "address"
        }
      ],
      "stateMutability": "view",
      "type": "function"
    },
    {
      "inputs": [],
      "name": "uniStakeAmount",
      "outputs": [
        {
          "internalType": "uint256",
          "name": "",
          "type": "uint256"
        }
      ],
      "stateMutability": "view",
      "type": "function"
    },
    {
      "inputs": [
        {
          "internalType": "address[]",
          "name": "targets",
          "type": "address[]"
        },
        {
          "internalType": "uint256[]",
          "name": "values",
          "type": "uint256[]"
        },
        {
          "internalType": "string[]",
          "name": "signatures",
          "type": "string[]"
        },
        {
          "internalType": "bytes[]",
          "name": "calldatas",
          "type": "bytes[]"
        },
        {
          "internalType": "string",
          "name": "description",
          "type": "string"
        }
      ],
      "name": "createCrowdProposal",
      "outputs": [],
      "stateMutability": "nonpayable",
      "type": "function"
    }
  ],
  "bytecode": "0x60e060405234801561001057600080fd5b50604051611f04380380611f0483398101604081905261002f9161006f565b6001600160601b0319606093841b81166080529190921b1660a05260c0526100ac565b80516001600160a01b038116811461006957600080fd5b92915050565b600080600060608486031215610083578283fd5b61008d8585610052565b925061009c8560208601610052565b9150604084015190509250925092565b60805160601c60a05160601c60c051611e146100f0600039806101de528061028c52508060e0528061026852508060bf52806101ac52806102b05250611e146000f3fe60806040523480156200001157600080fd5b5060043610620000525760003560e01c80630bd4bd7914620000575780630c340a2414620000705780639357c8d91462000092578063edc9af9514620000ab575b600080fd5b6200006e620000683660046200050b565b620000b5565b005b6200007a62000266565b60405162000089919062000775565b60405180910390f35b6200009c6200028a565b604051620000899190620008c1565b6200007a620002ae565b60003386868686867f00000000000000000000000000000000000000000000000000000000000000007f00000000000000000000000000000000000000000000000000000000000000006040516200010d90620002d2565b62000120989796959493929190620007ad565b604051809103906000f0801580156200013d573d6000803e3d6000fd5b509050336001600160a01b0316816001600160a01b03167fd52faceadd6a4186236465c876f0722a2eaf72ce2bc1466a30579823c6fcac7e88888888886040516200018d9594939291906200084c565b60405180910390a36040516323b872dd60e01b81526001600160a01b037f000000000000000000000000000000000000000000000000000000000000000016906323b872dd906200020790339085907f00000000000000000000000000000000000000000000000000000000000000009060040162000789565b602060405180830381600087803b1580156200022257600080fd5b505af115801562000237573d6000803e3d6000fd5b505050506040513d601f19601f820116820180604052508101906200025d9190620005e7565b50505050505050565b7f000000000000000000000000000000000000000000000000000000000000000081565b7f000000000000000000000000000000000000000000000000000000000000000081565b7f000000000000000000000000000000000000000000000000000000000000000081565b6114cb806200091483390190565b600082601f830112620002f1578081fd5b8135620003086200030282620008f2565b620008ca565b8181529150602080830190848101818402860182018710156200032a57600080fd5b6000805b85811015620003615782356001600160a01b03811681146200034e578283fd5b855293830193918301916001016200032e565b50505050505092915050565b600082601f8301126200037e578081fd5b81356200038f6200030282620008f2565b818152915060208083019084810160005b84811015620003cd57620003ba888484358a01016200049d565b84529282019290820190600101620003a0565b505050505092915050565b600082601f830112620003e9578081fd5b8135620003fa6200030282620008f2565b818152915060208083019084810160005b84811015620003cd5762000425888484358a01016200049d565b845292820192908201906001016200040b565b600082601f83011262000449578081fd5b81356200045a6200030282620008f2565b8181529150602080830190848101818402860182018710156200047c57600080fd5b60005b84811015620003cd578135845292820192908201906001016200047f565b600082601f830112620004ae578081fd5b813567ffffffffffffffff811115620004c5578182fd5b620004da601f8201601f1916602001620008ca565b9150808252836020828501011115620004f257600080fd5b8060208401602084013760009082016020015292915050565b600080600080600060a0868803121562000523578081fd5b853567ffffffffffffffff808211156200053b578283fd5b6200054989838a01620002e0565b965060208801359150808211156200055f578283fd5b6200056d89838a0162000438565b9550604088013591508082111562000583578283fd5b6200059189838a01620003d8565b94506060880135915080821115620005a7578283fd5b620005b589838a016200036d565b93506080880135915080821115620005cb578283fd5b50620005da888289016200049d565b9150509295509295909350565b600060208284031215620005f9578081fd5b8151801515811462000609578182fd5b9392505050565b6000815180845260208085019450808401835b838110156200064a5781516001600160a01b03168752958201959082019060010162000623565b509495945050505050565b6000815180845260208085018081965082840281019150828601855b858110156200069f5782840389526200068c84835162000727565b9885019893509084019060010162000671565b5091979650505050505050565b6000815180845260208085018081965082840281019150828601855b858110156200069f578284038952620006e384835162000727565b98850198935090840190600101620006c8565b6000815180845260208085019450808401835b838110156200064a5781518752958201959082019060010162000709565b60008151808452815b818110156200074e5760208185018101518683018201520162000730565b81811115620007605782602083870101525b50601f01601f19169290920160200192915050565b6001600160a01b0391909116815260200190565b6001600160a01b039384168152919092166020820152604081019190915260600190565b6001600160a01b03898116825261010060208301819052600091620007d58483018c62000610565b8481036040860152620007e9818c620006f6565b925050838203606085015262000800828a620006ac565b848103608086015262000814818a62000655565b92505083820360a08501526200082b828862000727565b925080861660c085015280851660e085015250509998505050505050505050565b600060a082526200086160a083018862000610565b8281036020840152620008758188620006f6565b8381036040850152620008898188620006ac565b9150508281036060840152620008a0818662000655565b8381036080850152620008b4818662000727565b9998505050505050505050565b90815260200190565b60405181810167ffffffffffffffff81118282101715620008ea57600080fd5b604052919050565b600067ffffffffffffffff82111562000909578081fd5b506020908102019056fe60e06040523480156200001157600080fd5b50604051620014cb380380620014cb8339810160408190526200003491620005fa565b6001600160601b0319606089901b1660805286516200005b9060009060208a019062000148565b50855162000071906001906020890190620001b2565b50845162000087906002906020880190620001fe565b5083516200009d9060039060208701906200025e565b508251620000b3906004906020860190620002be565b506001600160601b0319606083811b821660a05282901b1660c0526006805460ff191690556040516317066a5760e21b81526001600160a01b03831690635c19a95c906200010690309060040162000711565b600060405180830381600087803b1580156200012157600080fd5b505af115801562000136573d6000803e3d6000fd5b50505050505050505050505062000782565b828054828255906000526020600020908101928215620001a0579160200282015b82811115620001a057825182546001600160a01b0319166001600160a01b0390911617825560209092019160019091019062000169565b50620001ae92915062000330565b5090565b828054828255906000526020600020908101928215620001f0579160200282015b82811115620001f0578251825591602001919060010190620001d3565b50620001ae9291506200035a565b82805482825590600052602060002090810192821562000250579160200282015b828111156200025057825180516200023f918491602090910190620002be565b50916020019190600101906200021f565b50620001ae92915062000377565b828054828255906000526020600020908101928215620002b0579160200282015b82811115620002b057825180516200029f918491602090910190620002be565b50916020019190600101906200027f565b50620001ae9291506200039f565b828054600181600116156101000203166002900490600052602060002090601f016020900481019282601f106200030157805160ff1916838001178555620001f0565b82800160010185558215620001f05791820182811115620001f0578251825591602001919060010190620001d3565b6200035791905b80821115620001ae5780546001600160a01b031916815560010162000337565b90565b6200035791905b80821115620001ae576000815560010162000361565b6200035791905b80821115620001ae576000620003958282620003c7565b506001016200037e565b6200035791905b80821115620001ae576000620003bd8282620003c7565b50600101620003a6565b50805460018160011615610100020316600290046000825580601f10620003ef57506200040f565b601f0160209004906000526020600020908101906200040f91906200035a565b50565b80516200041f816200076c565b92915050565b600082601f83011262000436578081fd5b81516200044d62000447826200074c565b62000725565b8181529150602080830190848101818402860182018710156200046f57600080fd5b60005b848110156200049b57815162000488816200076c565b8452928201929082019060010162000472565b505050505092915050565b600082601f830112620004b7578081fd5b8151620004c862000447826200074c565b818152915060208083019084810160005b848110156200049b57620004f3888484518a01016200056b565b84529282019290820190600101620004d9565b600082601f83011262000517578081fd5b81516200052862000447826200074c565b8181529150602080830190848101818402860182018710156200054a57600080fd5b60005b848110156200049b578151845292820192908201906001016200054d565b600082601f8301126200057c578081fd5b81516001600160401b0381111562000592578182fd5b6020620005a8601f8301601f1916820162000725565b92508183528481838601011115620005bf57600080fd5b60005b82811015620005df578481018201518482018301528101620005c2565b82811115620005f15760008284860101525b50505092915050565b600080600080600080600080610100898b03121562000617578384fd5b620006238a8a62000412565b60208a01519098506001600160401b038082111562000640578586fd5b6200064e8c838d0162000425565b985060408b015191508082111562000664578586fd5b620006728c838d0162000506565b975060608b015191508082111562000688578586fd5b620006968c838d01620004a6565b965060808b0151915080821115620006ac578586fd5b620006ba8c838d01620004a6565b955060a08b0151915080821115620006d0578485fd5b50620006df8b828c016200056b565b935050620006f18a60c08b0162000412565b9150620007028a60e08b0162000412565b90509295985092959890939650565b6001600160a01b0391909116815260200190565b6040518181016001600160401b03811182821017156200074457600080fd5b604052919050565b60006001600160401b0382111562000762578081fd5b5060209081020190565b6001600160a01b03811681146200040f57600080fd5b60805160601c60a05160601c60c05160601c610cf0620007db600039806103df528061046a52806106a852508061026652806107ac5250806101d9528061028f5280610392528061061b528061074d5250610cf06000f3fe608060405234801561001057600080fd5b50600436106100cf5760003560e01c8063632a9a521161008c578063a6c3e6b911610066578063a6c3e6b91461017c578063be73f9ab14610184578063c198f8ba14610197578063edc9af951461019f576100cf565b8063632a9a521461014c5780637284e416146101545780638be1019414610169576100cf565b80630a39ce02146100d45780630c08bf88146100fd5780630c340a2414610107578063194307bf1461010f5780632b9bdc9e146101245780635e383d2114610139575b600080fd5b6100e76100e23660046107f5565b6101a7565b6040516100f491906109ea565b60405180910390f35b6101056101ce565b005b6100e76103dd565b610117610401565b6040516100f49190610ac3565b61012c61040a565b6040516100f49190610c95565b61012c6101473660046107f5565b610410565b61010561042e565b61015c610518565b6040516100f49190610ace565b61015c6101773660046107f5565b6105a6565b6100e7610619565b61015c6101923660046107f5565b61063d565b61012c61064a565b6100e76107aa565b600081815481106101b457fe5b6000918252602090912001546001600160a01b0316905081565b336001600160a01b037f0000000000000000000000000000000000000000000000000000000000000000161461021f5760405162461bcd60e51b815260040161021690610b91565b60405180910390fd5b60065460ff16156102425760405162461bcd60e51b815260040161021690610b34565b6006805460ff191660011790556040516370a0823160e01b81526001600160a01b037f0000000000000000000000000000000000000000000000000000000000000000169063a9059cbb907f00000000000000000000000000000000000000000000000000000000000000009083906370a08231906102c59030906004016109ea565b60206040518083038186803b1580156102dd57600080fd5b505afa1580156102f1573d6000803e3d6000fd5b505050506040513d601f19601f82011682018060405250810190610315919061080d565b6040518363ffffffff1660e01b81526004016103329291906109fe565b602060405180830381600087803b15801561034c57600080fd5b505af1158015610360573d6000803e3d6000fd5b505050506040513d601f19601f8201168201806040525081019061038491906107ce565b506040516001600160a01b037f0000000000000000000000000000000000000000000000000000000000000000169030907f23f673aea90166e3e0364748cd5f153da65814d4d343e1c3e2f43d33c0c3b3f190600090a3565b7f000000000000000000000000000000000000000000000000000000000000000081565b60065460ff1681565b60055481565b6001818154811061041d57fe5b600091825260209091200154905081565b6000600554116104505760405162461bcd60e51b815260040161021690610be4565b6005546040516315373e3d60e01b81526001600160a01b037f000000000000000000000000000000000000000000000000000000000000000016916315373e3d916104a19190600190600401610c9e565b600060405180830381600087803b1580156104bb57600080fd5b505af11580156104cf573d6000803e3d6000fd5b50505050306001600160a01b03167f402864f08818e224f9c5d5be7205cbe636a6239f96cc187e1445a414aa48c3f360055460405161050e9190610c95565b60405180910390a2565b6004805460408051602060026001851615610100026000190190941693909304601f8101849004840282018401909252818152929183018282801561059e5780601f106105735761010080835404028352916020019161059e565b820191906000526020600020905b81548152906001019060200180831161058157829003601f168201915b505050505081565b600281815481106105b357fe5b600091825260209182902001805460408051601f600260001961010060018716150201909416939093049283018590048502810185019091528181529350909183018282801561059e5780601f106105735761010080835404028352916020019161059e565b7f000000000000000000000000000000000000000000000000000000000000000081565b600381815481106105b357fe5b600060055460001461066e5760405162461bcd60e51b815260040161021690610ae1565b60065460ff16156106915760405162461bcd60e51b815260040161021690610c41565b604051636d4ab48d60e11b81526001600160a01b037f0000000000000000000000000000000000000000000000000000000000000000169063da95691a906106e9906000906001906002906003906004908101610a17565b602060405180830381600087803b15801561070357600080fd5b505af1158015610717573d6000803e3d6000fd5b505050506040513d601f19601f8201168201806040525081019061073b919061080d565b60058190556040516001600160a01b037f0000000000000000000000000000000000000000000000000000000000000000169130917fdd852111d50cb1db94e7f2c0d71c2e82ec0638c8ed1a57a94b2241294261bf1d9161079b91610c95565b60405180910390a35060055490565b7f000000000000000000000000000000000000000000000000000000000000000081565b6000602082840312156107df578081fd5b815180151581146107ee578182fd5b9392505050565b600060208284031215610806578081fd5b5035919050565b60006020828403121561081e578081fd5b5051919050565b6001600160a01b03169052565b6000815480845260208085018081965082840281019150858552828520855b8581101561087a5782840389526108688483610967565b98850198935060019182019101610851565b5091979650505050505050565b60008282548085526020808601955080818302840101858552818520855b848110156108d257858303601f190189526108c08383610967565b988401989250600191820191016108a5565b5090979650505050505050565b6000815480845260208085019450838352808320835b83811015610911578154875295820195600191820191016108f5565b509495945050505050565b60008151808452815b8181101561094157602081850181015186830182015201610925565b818111156109525782602083870101525b50601f01601f19169290920160200192915050565b6000815460018082166000811461098557600181146109a3576109e1565b60028304607f16865260ff19831660208701526040860193506109e1565b600283048087526109b386610cae565b60005b828110156109d75781546020828b01015284820191506020810190506109b6565b8801602001955050505b50505092915050565b6001600160a01b0391909116815260200190565b6001600160a01b03929092168252602082015260400190565b600060a0820160a0835280885480835260c08501915089845260209250828420845b82811015610a67578154610a579085906001600160a01b0316610825565b9284019260019182019101610a39565b50505083810382850152610a7b81896108df565b9150508281036040840152610a908187610887565b8381036060850152610aa28187610832565b9150508281036080840152610ab78185610967565b98975050505050505050565b901515815260200190565b6000602082526107ee602083018461091c565b60208082526033908201527f43726f776450726f706f73616c3a3a70726f706f73653a20676f762070726f706040820152726f73616c20616c72656164792065786973747360681b606082015260800190565b6020808252603e908201527f43726f776450726f706f73616c3a3a7465726d696e6174653a2070726f706f7360408201527f616c20686173206265656e20616c7265616479207465726d696e617465640000606082015260800190565b60208082526033908201527f43726f776450726f706f73616c3a3a7465726d696e6174653a206f6e6c7920616040820152727574686f722063616e207465726d696e61746560681b606082015260800190565b6020808252603a908201527f43726f776450726f706f73616c3a3a766f74653a20676f762070726f706f736160408201527f6c20686173206e6f74206265656e206372656174656420796574000000000000606082015260800190565b60208082526034908201527f43726f776450726f706f73616c3a3a70726f706f73653a2070726f706f73616c604082015273081a185cc81899595b881d195c9b5a5b985d195960621b606082015260800190565b90815260200190565b9182521515602082015260400190565b6000908152602090209056fea2646970667358221220e5db9ad2c835758a4c7727a88c470b9b1c4ad5d1f084362443f67f2a47f3055364736f6c634300060a0033a2646970667358221220f9640899cada277a3f86c4435a8a510ef5f5b7f9192b3b75adf3d5916c6f9c7964736f6c634300060a0033",
  "immutableReferences": {
    "309": [
      {
        "length": 32,
        "start": 191
      },
      {
        "length": 32,
        "start": 428
      },
      {
        "length": 32,
        "start": 688
      }
    ],
    "312": [
      {
        "length": 32,
        "start": 224
      },
      {
        "length": 32,
        "start": 616
      }
    ],
    "315": [
      {
        "length": 32,
        "start": 478
      },
      {
        "length": 32,
        "start": 652
      }
    ]
  },
  "source": "/**\n *Submitted for verification at Etherscan.io on 2020-10-17\n*/\n\n// SPDX-License-Identifier: GPL-3.0\n// forked from Compound's autonomous proposal Factory @0x524B54a6A7409A2Ac5b263Fb2A41DAC9d155ae71\n// refactored by the penguin party @penguinparty.eth\n\npragma solidity ^0.6.10;\npragma experimental ABIEncoderV2;\n\ninterface IUni {\n    function delegate(address delegatee) external;\n    function balanceOf(address account) external view returns (uint);\n    function transfer(address dst, uint rawAmount) external returns (bool);\n    function transferFrom(address src, address dst, uint rawAmount) external returns (bool);\n}\n\ninterface IGovernorAlpha {\n    function propose(address[] memory targets, uint[] memory values, string[] memory signatures, bytes[] memory calldatas, string memory description) external returns (uint);\n    function castVote(uint proposalId, bool support) external;\n}\n\ncontract CrowdProposal {\n    /// @notice The crowd proposal author\n    address payable public immutable author;\n\n    /// @notice Governance proposal data\n    address[] public targets;\n    uint[] public values;\n    string[] public signatures;\n    bytes[] public calldatas;\n    string public description;\n\n    /// @notice UNI token contract address\n    address public immutable uni;\n    /// @notice Uniswap protocol `GovernorAlpha` contract address\n    address public immutable governor;\n\n    /// @notice Governance proposal id\n    uint public govProposalId;\n    /// @notice Terminate flag\n    bool public terminated;\n\n    /// @notice An event emitted when the governance proposal is created\n    event CrowdProposalProposed(address indexed proposal, address indexed author, uint proposalId);\n    /// @notice An event emitted when the crowd proposal is terminated\n    event CrowdProposalTerminated(address indexed proposal, address indexed author);\n    /// @notice An event emitted when delegated votes are transfered to the governance proposal\n    event CrowdProposalVoted(address indexed proposal, uint proposalId);\n\n    /**\n    * @notice Construct crowd proposal\n    * @param author_ The crowd proposal author\n    * @param targets_ The ordered list of target addresses for calls to be made\n    * @param values_ The ordered list of values (i.e. msg.value) to be passed to the calls to be made\n    * @param signatures_ The ordered list of function signatures to be called\n    * @param calldatas_ The ordered list of calldata to be passed to each call\n    * @param description_ The block at which voting begins: holders must delegate their votes prior to this block\n    * @param uni_ `UNI` token contract address\n    * @param governor_ Uniswap protocol `GovernorAlpha` contract address\n    */\n    constructor(address payable author_,\n                address[] memory targets_,\n                uint[] memory values_,\n                string[] memory signatures_,\n                bytes[] memory calldatas_,\n                string memory description_,\n                address uni_,\n                address governor_) public {\n                    author = author_;\n\n                    // Save proposal data\n                    targets = targets_;\n                    values = values_;\n                    signatures = signatures_;\n                    calldatas = calldatas_;\n                    description = description_;\n\n                    // Save Uniswap contracts data\n                    uni = uni_;\n                    governor = governor_;\n\n                    terminated = false;\n\n                    // Delegate votes to the crowd proposal\n                    IUni(uni_).delegate(address(this));\n                }\n\n                /// @notice Create governance proposal\n                function propose() external returns (uint) {\n                    require(govProposalId == 0, 'CrowdProposal::propose: gov proposal already exists');\n                    require(!terminated, 'CrowdProposal::propose: proposal has been terminated');\n\n                    // Create governance proposal and save proposal id\n                    govProposalId = IGovernorAlpha(governor).propose(targets, values, signatures, calldatas, description);\n                    emit CrowdProposalProposed(address(this), author, govProposalId);\n\n                    return govProposalId;\n                }\n\n                /// @notice Terminate the crowd proposal, send back staked UNI tokens\n                function terminate() external {\n                    require(msg.sender == author, 'CrowdProposal::terminate: only author can terminate');\n                    require(!terminated, 'CrowdProposal::terminate: proposal has been already terminated');\n\n                    terminated = true;\n\n                    // Transfer staked UNI tokens from the crowd proposal contract back to the author\n                    IUni(uni).transfer(author, IUni(uni).balanceOf(address(this)));\n\n                    emit CrowdProposalTerminated(address(this), author);\n                }\n\n                /// @notice Vote for the governance proposal with all delegated votes\n                function vote() external {\n                    require(govProposalId > 0, 'CrowdProposal::vote: gov proposal has not been created yet');\n                    IGovernorAlpha(governor).castVote(govProposalId, true);\n\n                    emit CrowdProposalVoted(address(this), govProposalId);\n                }\n}\n\n\ncontract CrowdProposalFactory {\n    /// @notice `UNI` token contract address\n    address public immutable uni;\n    /// @notice Uniswap protocol `GovernorAlpha` contract address\n    address public immutable governor;\n    /// @notice Minimum uni tokens required to create a crowd proposal\n    uint public immutable uniStakeAmount;\n\n    /// @notice An event emitted when a crowd proposal is created\n    event CrowdProposalCreated(address indexed proposal, address indexed author, address[] targets, uint[] values, string[] signatures, bytes[] calldatas, string description);\n\n    /**\n    * @notice Construct a proposal factory for crowd proposals\n    * @param uni_ `UNI` token contract address\n    * @param governor_ Uniswap protocol `GovernorAlpha` contract address\n    * @param uniStakeAmount_ The minimum amount of uni tokes required for creation of a crowd proposal\n        */\n    constructor(address uni_,\n                address governor_,\n                uint uniStakeAmount_) public {\n                    uni = uni_;\n                    governor = governor_;\n                    uniStakeAmount = uniStakeAmount_;\n                }\n\n                /**\n                * @notice Create a new crowd proposal\n                * @notice Call `uni.approve(factory_address, uniStakeAmount)` before calling this method\n                * @param targets The ordered list of target addresses for calls to be made\n                * @param values The ordered list of values (i.e. msg.value) to be passed to the calls to be made\n                * @param signatures The ordered list of function signatures to be called\n                * @param calldatas The ordered list of calldata to be passed to each call\n                * @param description The block at which voting begins: holders must delegate their votes prior to this block\n                */\n                function createCrowdProposal(address[] memory targets,\n                                             uint[] memory values,\n                                             string[] memory signatures,\n                                             bytes[] memory calldatas,\n                                             string memory description) external {\n                                                 CrowdProposal proposal = new CrowdProposal(msg.sender, targets, values, signatures, calldatas, description, uni, governor);\n                                                 emit CrowdProposalCreated(address(proposal), msg.sender, targets, values, signatures, calldatas, description);\n\n                                                 // Stake UNI and force proposal to delegate votes to itself\n                                                 IUni(uni).transferFrom(msg.sender, address(proposal), uniStakeAmount);\n                                             }\n\n}",
  "sourcePath": "/home/belvis/ethereum/UNI-ETH-pool-proposal/contracts/solidityV6/CrowdProposalFactory.sol",
  "compiler": {
    "name": "solc",
    "version": "0.6.10+commit.00c0fcaf.Emscripten.clang"
  },
  "schemaVersion": "3.2.2-next.0",
  "updatedAt": "2020-10-22T07:36:56.729Z",
  "devdoc": {
    "methods": {
      "constructor": {
        "params": {
          "governor_": "Uniswap protocol `GovernorAlpha` contract address",
          "uniStakeAmount_": "The minimum amount of uni tokes required for creation of a crowd proposal",
          "uni_": "`UNI` token contract address"
        }
      },
      "createCrowdProposal(address[],uint256[],string[],bytes[],string)": {
        "params": {
          "calldatas": "The ordered list of calldata to be passed to each call",
          "description": "The block at which voting begins: holders must delegate their votes prior to this block",
          "signatures": "The ordered list of function signatures to be called",
          "targets": "The ordered list of target addresses for calls to be made",
          "values": "The ordered list of values (i.e. msg.value) to be passed to the calls to be made"
        }
      }
    }
  },
  "userdoc": {
    "methods": {
      "constructor": "Construct a proposal factory for crowd proposals",
      "createCrowdProposal(address[],uint256[],string[],bytes[],string)": {
        "notice": "Create a new crowd proposalCall `uni.approve(factory_address, uniStakeAmount)` before calling this method"
      },
      "governor()": {
        "notice": "Uniswap protocol `GovernorAlpha` contract address"
      },
      "uni()": {
        "notice": "`UNI` token contract address"
      },
      "uniStakeAmount()": {
        "notice": "Minimum uni tokens required to create a crowd proposal"
      }
    }
  }
}