{
  "contractName": "GovernorAlphaGodMode",
  "abi": [
    {
      "inputs": [
        {
          "internalType": "address",
          "name": "timelock_",
          "type": "address"
        },
        {
          "internalType": "address",
          "name": "comp_",
          "type": "address"
        },
        {
          "internalType": "address",
          "name": "guardian_",
          "type": "address"
        }
      ],
      "payable": false,
      "stateMutability": "nonpayable",
      "type": "constructor"
    },
    {
      "anonymous": false,
      "inputs": [
        {
          "indexed": false,
          "internalType": "uint256",
          "name": "id",
          "type": "uint256"
        }
      ],
      "name": "ProposalCanceled",
      "type": "event"
    },
    {
      "anonymous": false,
      "inputs": [
        {
          "indexed": false,
          "internalType": "uint256",
          "name": "id",
          "type": "uint256"
        },
        {
          "indexed": false,
          "internalType": "address",
          "name": "proposer",
          "type": "address"
        },
        {
          "indexed": false,
          "internalType": "address[]",
          "name": "targets",
          "type": "address[]"
        },
        {
          "indexed": false,
          "internalType": "uint256[]",
          "name": "values",
          "type": "uint256[]"
        },
        {
          "indexed": false,
          "internalType": "string[]",
          "name": "signatures",
          "type": "string[]"
        },
        {
          "indexed": false,
          "internalType": "bytes[]",
          "name": "calldatas",
          "type": "bytes[]"
        },
        {
          "indexed": false,
          "internalType": "uint256",
          "name": "startBlock",
          "type": "uint256"
        },
        {
          "indexed": false,
          "internalType": "uint256",
          "name": "endBlock",
          "type": "uint256"
        },
        {
          "indexed": false,
          "internalType": "string",
          "name": "description",
          "type": "string"
        }
      ],
      "name": "ProposalCreated",
      "type": "event"
    },
    {
      "anonymous": false,
      "inputs": [
        {
          "indexed": false,
          "internalType": "uint256",
          "name": "id",
          "type": "uint256"
        }
      ],
      "name": "ProposalExecuted",
      "type": "event"
    },
    {
      "anonymous": false,
      "inputs": [
        {
          "indexed": false,
          "internalType": "uint256",
          "name": "id",
          "type": "uint256"
        },
        {
          "indexed": false,
          "internalType": "uint256",
          "name": "eta",
          "type": "uint256"
        }
      ],
      "name": "ProposalQueued",
      "type": "event"
    },
    {
      "anonymous": false,
      "inputs": [
        {
          "indexed": false,
          "internalType": "address",
          "name": "voter",
          "type": "address"
        },
        {
          "indexed": false,
          "internalType": "uint256",
          "name": "proposalId",
          "type": "uint256"
        },
        {
          "indexed": false,
          "internalType": "bool",
          "name": "support",
          "type": "bool"
        },
        {
          "indexed": false,
          "internalType": "uint256",
          "name": "votes",
          "type": "uint256"
        }
      ],
      "name": "VoteCast",
      "type": "event"
    },
    {
      "constant": true,
      "inputs": [],
      "name": "BALLOT_TYPEHASH",
      "outputs": [
        {
          "internalType": "bytes32",
          "name": "",
          "type": "bytes32"
        }
      ],
      "payable": false,
      "stateMutability": "view",
      "type": "function"
    },
    {
      "constant": true,
      "inputs": [],
      "name": "DOMAIN_TYPEHASH",
      "outputs": [
        {
          "internalType": "bytes32",
          "name": "",
          "type": "bytes32"
        }
      ],
      "payable": false,
      "stateMutability": "view",
      "type": "function"
    },
    {
      "constant": true,
      "inputs": [],
      "name": "comp",
      "outputs": [
        {
          "internalType": "contract CompInterface",
          "name": "",
          "type": "address"
        }
      ],
      "payable": false,
      "stateMutability": "view",
      "type": "function"
    },
    {
      "constant": true,
      "inputs": [],
      "name": "guardian",
      "outputs": [
        {
          "internalType": "address",
          "name": "",
          "type": "address"
        }
      ],
      "payable": false,
      "stateMutability": "view",
      "type": "function"
    },
    {
      "constant": true,
      "inputs": [
        {
          "internalType": "address",
          "name": "",
          "type": "address"
        }
      ],
      "name": "latestProposalIds",
      "outputs": [
        {
          "internalType": "uint256",
          "name": "",
          "type": "uint256"
        }
      ],
      "payable": false,
      "stateMutability": "view",
      "type": "function"
    },
    {
      "constant": true,
      "inputs": [],
      "name": "name",
      "outputs": [
        {
          "internalType": "string",
          "name": "",
          "type": "string"
        }
      ],
      "payable": false,
      "stateMutability": "view",
      "type": "function"
    },
    {
      "constant": true,
      "inputs": [],
      "name": "proposalCount",
      "outputs": [
        {
          "internalType": "uint256",
          "name": "",
          "type": "uint256"
        }
      ],
      "payable": false,
      "stateMutability": "view",
      "type": "function"
    },
    {
      "constant": true,
      "inputs": [
        {
          "internalType": "uint256",
          "name": "",
          "type": "uint256"
        }
      ],
      "name": "proposals",
      "outputs": [
        {
          "internalType": "uint256",
          "name": "id",
          "type": "uint256"
        },
        {
          "internalType": "address",
          "name": "proposer",
          "type": "address"
        },
        {
          "internalType": "uint256",
          "name": "eta",
          "type": "uint256"
        },
        {
          "internalType": "uint256",
          "name": "startBlock",
          "type": "uint256"
        },
        {
          "internalType": "uint256",
          "name": "endBlock",
          "type": "uint256"
        },
        {
          "internalType": "uint256",
          "name": "forVotes",
          "type": "uint256"
        },
        {
          "internalType": "uint256",
          "name": "againstVotes",
          "type": "uint256"
        },
        {
          "internalType": "bool",
          "name": "canceled",
          "type": "bool"
        },
        {
          "internalType": "bool",
          "name": "executed",
          "type": "bool"
        }
      ],
      "payable": false,
      "stateMutability": "view",
      "type": "function"
    },
    {
      "constant": true,
      "inputs": [],
      "name": "timelock",
      "outputs": [
        {
          "internalType": "contract TimelockInterface",
          "name": "",
          "type": "address"
        }
      ],
      "payable": false,
      "stateMutability": "view",
      "type": "function"
    },
    {
      "constant": true,
      "inputs": [],
      "name": "quorumVotes",
      "outputs": [
        {
          "internalType": "uint256",
          "name": "",
          "type": "uint256"
        }
      ],
      "payable": false,
      "stateMutability": "pure",
      "type": "function"
    },
    {
      "constant": true,
      "inputs": [],
      "name": "proposalThreshold",
      "outputs": [
        {
          "internalType": "uint256",
          "name": "",
          "type": "uint256"
        }
      ],
      "payable": false,
      "stateMutability": "pure",
      "type": "function"
    },
    {
      "constant": true,
      "inputs": [],
      "name": "proposalMaxOperations",
      "outputs": [
        {
          "internalType": "uint256",
          "name": "",
          "type": "uint256"
        }
      ],
      "payable": false,
      "stateMutability": "pure",
      "type": "function"
    },
    {
      "constant": true,
      "inputs": [],
      "name": "votingDelay",
      "outputs": [
        {
          "internalType": "uint256",
          "name": "",
          "type": "uint256"
        }
      ],
      "payable": false,
      "stateMutability": "pure",
      "type": "function"
    },
    {
      "constant": true,
      "inputs": [],
      "name": "votingPeriod",
      "outputs": [
        {
          "internalType": "uint256",
          "name": "",
          "type": "uint256"
        }
      ],
      "payable": false,
      "stateMutability": "pure",
      "type": "function"
    },
    {
      "constant": false,
      "inputs": [
        {
          "internalType": "address",
          "name": "_timelock",
          "type": "address"
        }
      ],
      "name": "setTimelock",
      "outputs": [],
      "payable": false,
      "stateMutability": "nonpayable",
      "type": "function"
    },
    {
      "constant": false,
      "inputs": [
        {
          "internalType": "address[]",
          "name": "targets",
          "type": "address[]"
        },
        {
          "internalType": "uint256[]",
          "name": "values",
          "type": "uint256[]"
        },
        {
          "internalType": "string[]",
          "name": "signatures",
          "type": "string[]"
        },
        {
          "internalType": "bytes[]",
          "name": "calldatas",
          "type": "bytes[]"
        },
        {
          "internalType": "string",
          "name": "description",
          "type": "string"
        }
      ],
      "name": "propose",
      "outputs": [
        {
          "internalType": "uint256",
          "name": "",
          "type": "uint256"
        }
      ],
      "payable": false,
      "stateMutability": "nonpayable",
      "type": "function"
    },
    {
      "constant": false,
      "inputs": [
        {
          "internalType": "uint256",
          "name": "proposalId",
          "type": "uint256"
        }
      ],
      "name": "queue",
      "outputs": [],
      "payable": false,
      "stateMutability": "nonpayable",
      "type": "function"
    },
    {
      "constant": false,
      "inputs": [
        {
          "internalType": "uint256",
          "name": "proposalId",
          "type": "uint256"
        }
      ],
      "name": "execute",
      "outputs": [],
      "payable": true,
      "stateMutability": "payable",
      "type": "function"
    },
    {
      "constant": false,
      "inputs": [
        {
          "internalType": "uint256",
          "name": "proposalId",
          "type": "uint256"
        }
      ],
      "name": "cancel",
      "outputs": [],
      "payable": false,
      "stateMutability": "nonpayable",
      "type": "function"
    },
    {
      "constant": true,
      "inputs": [
        {
          "internalType": "uint256",
          "name": "proposalId",
          "type": "uint256"
        }
      ],
      "name": "getActions",
      "outputs": [
        {
          "internalType": "address[]",
          "name": "targets",
          "type": "address[]"
        },
        {
          "internalType": "uint256[]",
          "name": "values",
          "type": "uint256[]"
        },
        {
          "internalType": "string[]",
          "name": "signatures",
          "type": "string[]"
        },
        {
          "internalType": "bytes[]",
          "name": "calldatas",
          "type": "bytes[]"
        }
      ],
      "payable": false,
      "stateMutability": "view",
      "type": "function"
    },
    {
      "constant": true,
      "inputs": [
        {
          "internalType": "uint256",
          "name": "proposalId",
          "type": "uint256"
        },
        {
          "internalType": "address",
          "name": "voter",
          "type": "address"
        }
      ],
      "name": "getReceipt",
      "outputs": [
        {
          "components": [
            {
              "internalType": "bool",
              "name": "hasVoted",
              "type": "bool"
            },
            {
              "internalType": "bool",
              "name": "support",
              "type": "bool"
            },
            {
              "internalType": "uint96",
              "name": "votes",
              "type": "uint96"
            }
          ],
          "internalType": "struct GovernorAlphaGodMode.Receipt",
          "name": "",
          "type": "tuple"
        }
      ],
      "payable": false,
      "stateMutability": "view",
      "type": "function"
    },
    {
      "constant": true,
      "inputs": [
        {
          "internalType": "uint256",
          "name": "proposalId",
          "type": "uint256"
        }
      ],
      "name": "state",
      "outputs": [
        {
          "internalType": "enum GovernorAlphaGodMode.ProposalState",
          "name": "",
          "type": "uint8"
        }
      ],
      "payable": false,
      "stateMutability": "view",
      "type": "function"
    },
    {
      "constant": false,
      "inputs": [
        {
          "internalType": "uint256",
          "name": "proposalId",
          "type": "uint256"
        },
        {
          "internalType": "bool",
          "name": "support",
          "type": "bool"
        }
      ],
      "name": "castVote",
      "outputs": [],
      "payable": false,
      "stateMutability": "nonpayable",
      "type": "function"
    },
    {
      "constant": false,
      "inputs": [
        {
          "internalType": "uint256",
          "name": "proposalId",
          "type": "uint256"
        },
        {
          "internalType": "bool",
          "name": "support",
          "type": "bool"
        },
        {
          "internalType": "uint8",
          "name": "v",
          "type": "uint8"
        },
        {
          "internalType": "bytes32",
          "name": "r",
          "type": "bytes32"
        },
        {
          "internalType": "bytes32",
          "name": "s",
          "type": "bytes32"
        }
      ],
      "name": "castVoteBySig",
      "outputs": [],
      "payable": false,
      "stateMutability": "nonpayable",
      "type": "function"
    },
    {
      "constant": false,
      "inputs": [],
      "name": "__acceptAdmin",
      "outputs": [],
      "payable": false,
      "stateMutability": "nonpayable",
      "type": "function"
    },
    {
      "constant": false,
      "inputs": [],
      "name": "__abdicate",
      "outputs": [],
      "payable": false,
      "stateMutability": "nonpayable",
      "type": "function"
    },
    {
      "constant": false,
      "inputs": [
        {
          "internalType": "address",
          "name": "newPendingAdmin",
          "type": "address"
        },
        {
          "internalType": "uint256",
          "name": "eta",
          "type": "uint256"
        }
      ],
      "name": "__queueSetTimelockPendingAdmin",
      "outputs": [],
      "payable": false,
      "stateMutability": "nonpayable",
      "type": "function"
    },
    {
      "constant": false,
      "inputs": [
        {
          "internalType": "address",
          "name": "newPendingAdmin",
          "type": "address"
        },
        {
          "internalType": "uint256",
          "name": "eta",
          "type": "uint256"
        }
      ],
      "name": "__executeSetTimelockPendingAdmin",
      "outputs": [],
      "payable": false,
      "stateMutability": "nonpayable",
      "type": "function"
    }
  ],
  "bytecode": "0x60806040523480156200001157600080fd5b506040516200397a3803806200397a83398101604081905262000034916200008a565b600080546001600160a01b039485166001600160a01b0319918216179091556001805493851693821693909317909255600280549190931691161790556200010a565b80516200008481620000f0565b92915050565b600080600060608486031215620000a057600080fd5b6000620000ae868662000077565b9350506020620000c18682870162000077565b9250506040620000d48682870162000077565b9150509250925092565b60006001600160a01b03821662000084565b620000fb81620000de565b81146200010757600080fd5b50565b613860806200011a6000396000f3fe6080604052600436106101b75760003560e01c80634634c61f116100ec578063d33219b41161008a578063ddf0b00911610064578063ddf0b0091461049e578063deaaa7cc146104be578063e23a9a52146104d3578063fe0d94c114610500576101b7565b8063d33219b414610454578063da35c66414610469578063da95691a1461047e576101b7565b806391500671116100c657806391500671146103ea578063b58131b01461040a578063b9a619611461041f578063bdacb30314610434576101b7565b80634634c61f146103a0578063760fbc13146103c05780637bdbe4d0146103d5576101b7565b806321f43e42116101595780633932abb1116101335780633932abb11461031c5780633e4f49e61461033157806340e58ee51461035e578063452a93201461037e576101b7565b806321f43e42146102b757806324bc1a64146102d7578063328dd982146102ec576101b7565b8063109d0af811610195578063109d0af81461023e57806315373e3d1461026057806317977c611461028257806320606b70146102a2576101b7565b8063013cf08b146101bc57806302a251a3146101fa57806306fdde031461021c575b600080fd5b3480156101c857600080fd5b506101dc6101d73660046124a6565b610513565b6040516101f19998979695949392919061360b565b60405180910390f35b34801561020657600080fd5b5061020f61056c565b6040516101f19190613338565b34801561022857600080fd5b50610231610573565b6040516101f191906133f4565b34801561024a57600080fd5b506102536105a6565b6040516101f191906133d8565b34801561026c57600080fd5b5061028061027b3660046124f4565b6105b5565b005b34801561028e57600080fd5b5061020f61029d3660046122e9565b6105c4565b3480156102ae57600080fd5b5061020f6105d6565b3480156102c357600080fd5b506102806102d236600461230f565b6105ed565b3480156102e357600080fd5b5061020f6106d4565b3480156102f857600080fd5b5061030c6103073660046124a6565b6106e2565b6040516101f194939291906132eb565b34801561032857600080fd5b5061020f610971565b34801561033d57600080fd5b5061035161034c3660046124a6565b610976565b6040516101f191906133e6565b34801561036a57600080fd5b506102806103793660046124a6565b610af8565b34801561038a57600080fd5b50610393610d61565b6040516101f19190613195565b3480156103ac57600080fd5b506102806103bb366004612524565b610d70565b3480156103cc57600080fd5b50610280610f07565b3480156103e157600080fd5b5061020f610f43565b3480156103f657600080fd5b5061028061040536600461230f565b610f48565b34801561041657600080fd5b5061020f61101d565b34801561042b57600080fd5b5061028061102b565b34801561044057600080fd5b5061028061044f3660046122e9565b6110b0565b34801561046057600080fd5b506102536110d2565b34801561047557600080fd5b5061020f6110e1565b34801561048a57600080fd5b5061020f610499366004612349565b6110e7565b3480156104aa57600080fd5b506102806104b93660046124a6565b611509565b3480156104ca57600080fd5b5061020f611773565b3480156104df57600080fd5b506104f36104ee3660046124c4565b61177f565b6040516101f19190613555565b61028061050e3660046124a6565b6117ee565b6004602052600090815260409020805460018201546002830154600784015460088501546009860154600a870154600b9097015495966001600160a01b0390951695939492939192909160ff8082169161010090041689565b6143805b90565b60405180604001604052806017815260200176436f6d706f756e6420476f7665726e6f7220416c70686160481b81525081565b6001546001600160a01b031681565b6105c03383836119b3565b5050565b60056020526000908152604090205481565b6040516105e29061317f565b604051809103902081565b6002546001600160a01b031633146106205760405162461bcd60e51b815260040161061790613435565b60405180910390fd5b600080546040516001600160a01b0390911691630825f38f9183919061064a908790602001613195565b604051602081830303815290604052856040518563ffffffff1660e01b815260040161067994939291906131be565b600060405180830381600087803b15801561069357600080fd5b505af11580156106a7573d6000803e3d6000fd5b505050506040513d6000823e601f3d908101601f191682016040526106cf9190810190612471565b505050565b6954b40b1f852bda00000090565b6060806060806000600460008781526020019081526020016000209050806003018160040182600501836006018380548060200260200160405190810160405280929190818152602001828054801561076457602002820191906000526020600020905b81546001600160a01b03168152600190910190602001808311610746575b50505050509350828054806020026020016040519081016040528092919081815260200182805480156107b657602002820191906000526020600020905b8154815260200190600101908083116107a2575b5050505050925081805480602002602001604051908101604052809291908181526020016000905b828210156108895760008481526020908190208301805460408051601f60026000196101006001871615020190941693909304928301859004850281018501909152818152928301828280156108755780601f1061084a57610100808354040283529160200191610875565b820191906000526020600020905b81548152906001019060200180831161085857829003601f168201915b5050505050815260200190600101906107de565b50505050915080805480602002602001604051908101604052809291908181526020016000905b8282101561095b5760008481526020908190208301805460408051601f60026000196101006001871615020190941693909304928301859004850281018501909152818152928301828280156109475780601f1061091c57610100808354040283529160200191610947565b820191906000526020600020905b81548152906001019060200180831161092a57829003601f168201915b5050505050815260200190600101906108b0565b5050505090509450945094509450509193509193565b600190565b6000816003541015801561098a5750600082115b6109a65760405162461bcd60e51b815260040161061790613445565b6000828152600460205260409020600b81015460ff16156109cb576002915050610af3565b806007015443116109e0576000915050610af3565b806008015443116109f5576001915050610af3565b80600a01548160090154111580610a165750610a0f6106d4565b8160090154105b15610a25576003915050610af3565b6002810154610a38576004915050610af3565b600b810154610100900460ff1615610a54576007915050610af3565b6002810154600054604080516360d143f160e11b81529051610add93926001600160a01b03169163c1a287e2916004808301926020929190829003018186803b158015610aa057600080fd5b505afa158015610ab4573d6000803e3d6000fd5b505050506040513d601f19601f82011682018060405250610ad89190810190612453565b611b7c565b4210610aed576006915050610af3565b60059150505b919050565b6000610b0382610976565b90506007816007811115610b1357fe5b1415610b315760405162461bcd60e51b815260040161061790613515565b60008281526004602052604090206002546001600160a01b0316331480610bfc5750610b5b61101d565b60018054838201546001600160a01b039182169263782d6fe19290911690610b84904390611ba8565b6040518363ffffffff1660e01b8152600401610ba192919061320d565b60206040518083038186803b158015610bb957600080fd5b505afa158015610bcd573d6000803e3d6000fd5b505050506040513d601f19601f82011682018060405250610bf1919081019061258c565b6001600160601b0316105b610c185760405162461bcd60e51b8152600401610617906134b5565b600b8101805460ff1916600117905560005b6003820154811015610d24576000546003830180546001600160a01b039092169163591fcdfe919084908110610c5c57fe5b6000918252602090912001546004850180546001600160a01b039092169185908110610c8457fe5b9060005260206000200154856005018581548110610c9e57fe5b90600052602060002001866006018681548110610cb757fe5b9060005260206000200187600201546040518663ffffffff1660e01b8152600401610ce69594939291906132aa565b600060405180830381600087803b158015610d0057600080fd5b505af1158015610d14573d6000803e3d6000fd5b505060019092019150610c2a9050565b507f789cf55be980739dad1d0699b93b58e806b51c9d96619bfa8fe0a28abaa7b30c83604051610d549190613338565b60405180910390a1505050565b6002546001600160a01b031681565b6000604051610d7e9061317f565b604080519182900382208282019091526017825276436f6d706f756e6420476f7665726e6f7220416c70686160481b6020909201919091527ff5eb22c2e7100465020c98b00537528808db4fec6eb24c550685a92742247bc5610ddf611bd0565b30604051602001610df39493929190613346565b6040516020818303038152906040528051906020012090506000604051610e199061318a565b604051908190038120610e32918990899060200161337b565b60405160208183030381529060405280519060200120905060008282604051602001610e5f92919061314e565b604051602081830303815290604052805190602001209050600060018288888860405160008152602001604052604051610e9c94939291906133a3565b6020604051602081039080840390855afa158015610ebe573d6000803e3d6000fd5b5050604051601f1901519150506001600160a01b038116610ef15760405162461bcd60e51b8152600401610617906134f5565b610efc818a8a6119b3565b505050505050505050565b6002546001600160a01b03163314610f315760405162461bcd60e51b815260040161061790613545565b600280546001600160a01b0319169055565b600a90565b6002546001600160a01b03163314610f725760405162461bcd60e51b815260040161061790613475565b600080546040516001600160a01b0390911691633a66f90191839190610f9c908790602001613195565b604051602081830303815290604052856040518563ffffffff1660e01b8152600401610fcb94939291906131be565b602060405180830381600087803b158015610fe557600080fd5b505af1158015610ff9573d6000803e3d6000fd5b505050506040513d601f19601f820116820180604052506106cf9190810190612453565b69152d02c7e14af680000090565b6002546001600160a01b031633146110555760405162461bcd60e51b815260040161061790613405565b6000805460408051630e18b68160e01b815290516001600160a01b0390921692630e18b6819260048084019382900301818387803b15801561109657600080fd5b505af11580156110aa573d6000803e3d6000fd5b50505050565b600080546001600160a01b0319166001600160a01b0392909216919091179055565b6000546001600160a01b031681565b60035481565b60006110f161101d565b600180546001600160a01b03169063782d6fe1903390611112904390611ba8565b6040518363ffffffff1660e01b815260040161112f9291906131a3565b60206040518083038186803b15801561114757600080fd5b505afa15801561115b573d6000803e3d6000fd5b505050506040513d601f19601f8201168201806040525061117f919081019061258c565b6001600160601b0316116111a55760405162461bcd60e51b8152600401610617906134e5565b845186511480156111b7575083518651145b80156111c4575082518651145b6111e05760405162461bcd60e51b8152600401610617906134a5565b85516111fe5760405162461bcd60e51b8152600401610617906134d5565b611206610f43565b865111156112265760405162461bcd60e51b815260040161061790613485565b3360009081526005602052604090205480156112a357600061124782610976565b9050600181600781111561125757fe5b14156112755760405162461bcd60e51b815260040161061790613505565b600081600781111561128357fe5b14156112a15760405162461bcd60e51b815260040161061790613465565b505b60006112b143610ad8610971565b905060006112c182610ad861056c565b60038054600101905590506112d4611d33565b604051806101a001604052806003548152602001336001600160a01b03168152602001600081526020018b81526020018a815260200189815260200188815260200184815260200183815260200160008152602001600081526020016000151581526020016000151581525090508060046000836000015181526020019081526020016000206000820151816000015560208201518160010160006101000a8154816001600160a01b0302191690836001600160a01b031602179055506040820151816002015560608201518160030190805190602001906113b7929190611da8565b50608082015180516113d3916004840191602090910190611e0d565b5060a082015180516113ef916005840191602090910190611e54565b5060c0820151805161140b916006840191602090910190611ead565b5060e082015181600701556101008201518160080155610120820151816009015561014082015181600a015561016082015181600b0160006101000a81548160ff02191690831515021790555061018082015181600b0160016101000a81548160ff02191690831515021790555090505080600001516005600083602001516001600160a01b03166001600160a01b03168152602001908152602001600020819055507f7d84a6263ae0d98d3329bd7b46bb4e8d6f98cd35a7adb45c274c8b7fd5ebd5e08160000151338c8c8c8c89898e6040516114f199989796959493929190613563565b60405180910390a15193505050505b95945050505050565b600461151482610976565b600781111561151f57fe5b1461153c5760405162461bcd60e51b815260040161061790613415565b600081815260046020818152604080842084548251630d48571f60e31b815292519195946115919442946001600160a01b0390931693636a42b8f8938084019390829003018186803b158015610aa057600080fd5b905060005b6003830154811015611739576117318360030182815481106115b457fe5b6000918252602090912001546004850180546001600160a01b0390921691849081106115dc57fe5b90600052602060002001548560050184815481106115f657fe5b600091825260209182902001805460408051601f60026000196101006001871615020190941693909304928301859004850281018501909152818152928301828280156116845780601f1061165957610100808354040283529160200191611684565b820191906000526020600020905b81548152906001019060200180831161166757829003601f168201915b505050505086600601858154811061169857fe5b600091825260209182902001805460408051601f60026000196101006001871615020190941693909304928301859004850281018501909152818152928301828280156117265780601f106116fb57610100808354040283529160200191611726565b820191906000526020600020905b81548152906001019060200180831161170957829003601f168201915b505050505086611bd4565b600101611596565b50600282018190556040517f9a2e42fd6722813d69113e7d0079d3d940171428df7373df9c7f7617cfda289290610d549085908490613691565b6040516105e29061318a565b611787611f06565b5060008281526004602090815260408083206001600160a01b0385168452600c018252918290208251606081018452905460ff80821615158352610100820416151592820192909252620100009091046001600160601b0316918101919091525b92915050565b60056117f982610976565b600781111561180457fe5b146118215760405162461bcd60e51b815260040161061790613425565b6000818152600460205260408120600b8101805461ff001916610100179055905b6003820154811015611977576000546004830180546001600160a01b0390921691630825f38f91908490811061187457fe5b906000526020600020015484600301848154811061188e57fe5b6000918252602090912001546004860180546001600160a01b0390921691869081106118b657fe5b90600052602060002001548660050186815481106118d057fe5b906000526020600020018760060187815481106118e957fe5b9060005260206000200188600201546040518763ffffffff1660e01b81526004016119189594939291906132aa565b6000604051808303818588803b15801561193157600080fd5b505af1158015611945573d6000803e3d6000fd5b50505050506040513d6000823e601f3d908101601f1916820160405261196e9190810190612471565b50600101611842565b507f712ae1383f79ac853f8d882153778e0260ef8f03b504e2866e0593e04d2b291f826040516119a79190613338565b60405180910390a15050565b60016119be83610976565b60078111156119c957fe5b146119e65760405162461bcd60e51b815260040161061790613525565b60008281526004602090815260408083206001600160a01b0387168452600c8101909252909120805460ff1615611a2f5760405162461bcd60e51b815260040161061790613455565b600154600783015460405163782d6fe160e01b81526000926001600160a01b03169163782d6fe191611a65918a9160040161320d565b60206040518083038186803b158015611a7d57600080fd5b505afa158015611a91573d6000803e3d6000fd5b505050506040513d601f19601f82011682018060405250611ab5919081019061258c565b90508315611ade57611ad48360090154826001600160601b0316611b7c565b6009840155611afb565b611af583600a0154826001600160601b0316611b7c565b600a8401555b8154600160ff199091161761ff00191661010085151502176dffffffffffffffffffffffff00001916620100006001600160601b038316021782556040517f877856338e13f63d0c36822ff0ef736b80934cd90574a3a5bc9262c39d217c4690611b6c90889088908890869061321b565b60405180910390a1505050505050565b600082820183811015611ba15760405162461bcd60e51b815260040161061790613495565b9392505050565b600082821115611bca5760405162461bcd60e51b815260040161061790613535565b50900390565b4690565b6000546040516001600160a01b039091169063f2b0653790611c029088908890889088908890602001613250565b604051602081830303815290604052805190602001206040518263ffffffff1660e01b8152600401611c349190613338565b60206040518083038186803b158015611c4c57600080fd5b505afa158015611c60573d6000803e3d6000fd5b505050506040513d601f19601f82011682018060405250611c849190810190612435565b15611ca15760405162461bcd60e51b8152600401610617906134c5565b600054604051633a66f90160e01b81526001600160a01b0390911690633a66f90190611cd99088908890889088908890600401613250565b602060405180830381600087803b158015611cf357600080fd5b505af1158015611d07573d6000803e3d6000fd5b505050506040513d601f19601f82011682018060405250611d2b9190810190612453565b505050505050565b604051806101a001604052806000815260200160006001600160a01b031681526020016000815260200160608152602001606081526020016060815260200160608152602001600081526020016000815260200160008152602001600081526020016000151581526020016000151581525090565b828054828255906000526020600020908101928215611dfd579160200282015b82811115611dfd57825182546001600160a01b0319166001600160a01b03909116178255602090920191600190910190611dc8565b50611e09929150611f26565b5090565b828054828255906000526020600020908101928215611e48579160200282015b82811115611e48578251825591602001919060010190611e2d565b50611e09929150611f4a565b828054828255906000526020600020908101928215611ea1579160200282015b82811115611ea15782518051611e91918491602090910190611f64565b5091602001919060010190611e74565b50611e09929150611fd1565b828054828255906000526020600020908101928215611efa579160200282015b82811115611efa5782518051611eea918491602090910190611f64565b5091602001919060010190611ecd565b50611e09929150611ff4565b604080516060810182526000808252602082018190529181019190915290565b61057091905b80821115611e095780546001600160a01b0319168155600101611f2c565b61057091905b80821115611e095760008155600101611f50565b828054600181600116156101000203166002900490600052602060002090601f016020900481019282601f10611fa557805160ff1916838001178555611e48565b82800160010185558215611e485791820182811115611e48578251825591602001919060010190611e2d565b61057091905b80821115611e09576000611feb8282612017565b50600101611fd7565b61057091905b80821115611e0957600061200e8282612017565b50600101611ffa565b50805460018160011615610100020316600290046000825580601f1061203d575061205b565b601f01602090049060005260206000209081019061205b9190611f4a565b50565b80356117e8816137e5565b600082601f83011261207a57600080fd5b813561208d612088826136c6565b61369f565b915081818352602084019350602081019050838560208402820111156120b257600080fd5b60005b838110156120de57816120c8888261205e565b84525060209283019291909101906001016120b5565b5050505092915050565b600082601f8301126120f957600080fd5b8135612107612088826136c6565b81815260209384019390925082018360005b838110156120de578135860161212f888261223e565b8452506020928301929190910190600101612119565b600082601f83011261215657600080fd5b8135612164612088826136c6565b81815260209384019390925082018360005b838110156120de578135860161218c888261223e565b8452506020928301929190910190600101612176565b600082601f8301126121b357600080fd5b81356121c1612088826136c6565b915081818352602084019350602081019050838560208402820111156121e657600080fd5b60005b838110156120de57816121fc8882612228565b84525060209283019291909101906001016121e9565b80356117e8816137f9565b80516117e8816137f9565b80356117e881613802565b80516117e881613802565b600082601f83011261224f57600080fd5b813561225d612088826136e7565b9150808252602083016020830185838301111561227957600080fd5b612284838284613799565b50505092915050565b600082601f83011261229e57600080fd5b81516122ac612088826136e7565b915080825260208301602083018583830111156122c857600080fd5b6122848382846137a5565b80356117e88161380b565b80516117e881613814565b6000602082840312156122fb57600080fd5b6000612307848461205e565b949350505050565b6000806040838503121561232257600080fd5b600061232e858561205e565b925050602061233f85828601612228565b9150509250929050565b600080600080600060a0868803121561236157600080fd5b853567ffffffffffffffff81111561237857600080fd5b61238488828901612069565b955050602086013567ffffffffffffffff8111156123a157600080fd5b6123ad888289016121a2565b945050604086013567ffffffffffffffff8111156123ca57600080fd5b6123d688828901612145565b935050606086013567ffffffffffffffff8111156123f357600080fd5b6123ff888289016120e8565b925050608086013567ffffffffffffffff81111561241c57600080fd5b6124288882890161223e565b9150509295509295909350565b60006020828403121561244757600080fd5b6000612307848461221d565b60006020828403121561246557600080fd5b60006123078484612233565b60006020828403121561248357600080fd5b815167ffffffffffffffff81111561249a57600080fd5b6123078482850161228d565b6000602082840312156124b857600080fd5b60006123078484612228565b600080604083850312156124d757600080fd5b60006124e38585612228565b925050602061233f8582860161205e565b6000806040838503121561250757600080fd5b60006125138585612228565b925050602061233f85828601612212565b600080600080600060a0868803121561253c57600080fd5b60006125488888612228565b955050602061255988828901612212565b945050604061256a888289016122d3565b935050606061257b88828901612228565b925050608061242888828901612228565b60006020828403121561259e57600080fd5b600061230784846122de565b60006125b683836125e5565b505060200190565b6000611ba18383612787565b60006125b6838361276d565b6125df81613766565b82525050565b6125df8161372e565b60006125f982613721565b6126038185613725565b935061260e8361370f565b8060005b8381101561263c57815161262688826125aa565b97506126318361370f565b925050600101612612565b509495945050505050565b600061265282613721565b61265c8185613725565b93508360208202850161266e8561370f565b8060005b858110156126a8578484038952815161268b85826125be565b94506126968361370f565b60209a909a0199925050600101612672565b5091979650505050505050565b60006126c082613721565b6126ca8185613725565b9350836020820285016126dc8561370f565b8060005b858110156126a857848403895281516126f985826125be565b94506127048361370f565b60209a909a01999250506001016126e0565b600061272182613721565b61272b8185613725565b93506127368361370f565b8060005b8381101561263c57815161274e88826125ca565b97506127598361370f565b92505060010161273a565b6125df81613739565b6125df81610570565b6125df61278282610570565b610570565b600061279282613721565b61279c8185613725565b93506127ac8185602086016137a5565b6127b5816137d1565b9093019392505050565b6000815460018116600081146127dc576001811461280257612841565b607f60028304166127ed8187613725565b60ff1984168152955050602085019250612841565b600282046128108187613725565b955061281b85613715565b60005b8281101561283a5781548882015260019091019060200161281e565b8701945050505b505092915050565b6125df8161376d565b6125df81613778565b6125df81613783565b6000612871603983613725565b7f476f7665726e6f72416c7068613a3a5f5f61636365707441646d696e3a20736581527f6e646572206d75737420626520676f7620677561726469616e00000000000000602082015260400192915050565b60006128d0604483613725565b7f476f7665726e6f72416c7068613a3a71756575653a2070726f706f73616c206381527f616e206f6e6c79206265207175657565642069662069742069732073756363656020820152631959195960e21b604082015260600192915050565b600061293c604583613725565b7f476f7665726e6f72416c7068613a3a657865637574653a2070726f706f73616c81527f2063616e206f6e6c7920626520657865637574656420696620697420697320716020820152641d595d595960da1b604082015260600192915050565b60006129a9600283610af3565b61190160f01b815260020192915050565b60006129c7604c83613725565b7f476f7665726e6f72416c7068613a3a5f5f6578656375746553657454696d656c81527f6f636b50656e64696e6741646d696e3a2073656e646572206d7573742062652060208201526b33b7bb1033bab0b93234b0b760a11b604082015260600192915050565b6000612a3b601883613725565b7f73657450656e64696e6741646d696e2861646472657373290000000000000000815260200192915050565b6000612a74602983613725565b7f476f7665726e6f72416c7068613a3a73746174653a20696e76616c69642070728152681bdc1bdcd85b081a5960ba1b602082015260400192915050565b6000612abf602d83613725565b7f476f7665726e6f72416c7068613a3a5f63617374566f74653a20766f7465722081526c185b1c9958591e481d9bdd1959609a1b602082015260400192915050565b6000612b0e605983613725565b7f476f7665726e6f72416c7068613a3a70726f706f73653a206f6e65206c69766581527f2070726f706f73616c207065722070726f706f7365722c20666f756e6420616e60208201527f20616c72656164792070656e64696e672070726f706f73616c00000000000000604082015260600192915050565b6000612b93604a83613725565b7f476f7665726e6f72416c7068613a3a5f5f717565756553657454696d656c6f6381527f6b50656e64696e6741646d696e3a2073656e646572206d75737420626520676f6020820152693b1033bab0b93234b0b760b11b604082015260600192915050565b6000612c05602883613725565b7f476f7665726e6f72416c7068613a3a70726f706f73653a20746f6f206d616e7981526720616374696f6e7360c01b602082015260400192915050565b6000612c4f601183613725565b706164646974696f6e206f766572666c6f7760781b815260200192915050565b6000612c7c604383610af3565b7f454950373132446f6d61696e28737472696e67206e616d652c75696e7432353681527f20636861696e49642c6164647265737320766572696679696e67436f6e74726160208201526263742960e81b604082015260430192915050565b6000612ce7602783610af3565b7f42616c6c6f742875696e743235362070726f706f73616c49642c626f6f6c20738152667570706f72742960c81b602082015260270192915050565b6000612d30604483613725565b7f476f7665726e6f72416c7068613a3a70726f706f73653a2070726f706f73616c81527f2066756e6374696f6e20696e666f726d6174696f6e206172697479206d69736d6020820152630c2e8c6d60e31b604082015260600192915050565b6000612d9c602f83613725565b7f476f7665726e6f72416c7068613a3a63616e63656c3a2070726f706f7365722081526e18589bdd99481d1a1c995cda1bdb19608a1b602082015260400192915050565b6000612ded604483613725565b7f476f7665726e6f72416c7068613a3a5f71756575654f725265766572743a207081527f726f706f73616c20616374696f6e20616c7265616479207175657565642061746020820152632065746160e01b604082015260600192915050565b6000612e59602c83613725565b7f476f7665726e6f72416c7068613a3a70726f706f73653a206d7573742070726f81526b7669646520616374696f6e7360a01b602082015260400192915050565b6000612ea7603f83613725565b7f476f7665726e6f72416c7068613a3a70726f706f73653a2070726f706f73657281527f20766f7465732062656c6f772070726f706f73616c207468726573686f6c6400602082015260400192915050565b6000612f06602f83613725565b7f476f7665726e6f72416c7068613a3a63617374566f746542795369673a20696e81526e76616c6964207369676e617475726560881b602082015260400192915050565b6000612f57605883613725565b7f476f7665726e6f72416c7068613a3a70726f706f73653a206f6e65206c69766581527f2070726f706f73616c207065722070726f706f7365722c20666f756e6420616e60208201527f20616c7265616479206163746976652070726f706f73616c0000000000000000604082015260600192915050565b6000612fdc603683613725565b7f476f7665726e6f72416c7068613a3a63616e63656c3a2063616e6e6f742063618152751b98d95b08195e1958dd5d1959081c1c9bdc1bdcd85b60521b602082015260400192915050565b6000613034602a83613725565b7f476f7665726e6f72416c7068613a3a5f63617374566f74653a20766f74696e67815269081a5cc818db1bdcd95960b21b602082015260400192915050565b6000613080601583613725565b747375627472616374696f6e20756e646572666c6f7760581b815260200192915050565b60006130b1603683613725565b7f476f7665726e6f72416c7068613a3a5f5f61626469636174653a2073656e6465815275391036bab9ba1031329033b7bb1033bab0b93234b0b760511b602082015260400192915050565b8051606083019061310d8482612764565b5060208201516131206020850182612764565b5060408201516110aa6040850182613145565b6125df81613754565b6125df8161378e565b6125df8161375a565b60006131598261299c565b91506131658285612776565b6020820191506131758284612776565b5060200192915050565b60006117e882612c6f565b60006117e882612cda565b602081016117e882846125e5565b604081016131b182856125d6565b611ba1602083018461276d565b60a081016131cc82876125e5565b6131d9602083018661285b565b81810360408301526131ea81612a2e565b905081810360608301526131fe8185612787565b9050611500608083018461276d565b604081016131b182856125e5565b6080810161322982876125e5565b613236602083018661276d565b6132436040830185612764565b611500606083018461313c565b60a0810161325e82886125e5565b61326b602083018761276d565b818103604083015261327d8186612787565b905081810360608301526132918185612787565b90506132a0608083018461276d565b9695505050505050565b60a081016132b882886125e5565b6132c5602083018761276d565b81810360408301526132d781866127bf565b9050818103606083015261329181856127bf565b608080825281016132fc81876125ee565b905081810360208301526133108186612716565b9050818103604083015261332481856126b5565b905081810360608301526132a08184612647565b602081016117e8828461276d565b60808101613354828761276d565b613361602083018661276d565b61336e604083018561276d565b61150060608301846125e5565b60608101613389828661276d565b613396602083018561276d565b6123076040830184612764565b608081016133b1828761276d565b6133be6020830186613133565b6133cb604083018561276d565b611500606083018461276d565b602081016117e88284612849565b602081016117e88284612852565b60208082528101611ba18184612787565b602080825281016117e881612864565b602080825281016117e8816128c3565b602080825281016117e88161292f565b602080825281016117e8816129ba565b602080825281016117e881612a67565b602080825281016117e881612ab2565b602080825281016117e881612b01565b602080825281016117e881612b86565b602080825281016117e881612bf8565b602080825281016117e881612c42565b602080825281016117e881612d23565b602080825281016117e881612d8f565b602080825281016117e881612de0565b602080825281016117e881612e4c565b602080825281016117e881612e9a565b602080825281016117e881612ef9565b602080825281016117e881612f4a565b602080825281016117e881612fcf565b602080825281016117e881613027565b602080825281016117e881613073565b602080825281016117e8816130a4565b606081016117e882846130fc565b6101208101613572828c61276d565b61357f602083018b6125d6565b8181036040830152613591818a6125ee565b905081810360608301526135a58189612716565b905081810360808301526135b981886126b5565b905081810360a08301526135cd8187612647565b90506135dc60c083018661276d565b6135e960e083018561276d565b8181036101008301526135fc8184612787565b9b9a5050505050505050505050565b610120810161361a828c61276d565b613627602083018b6125e5565b613634604083018a61276d565b613641606083018961276d565b61364e608083018861276d565b61365b60a083018761276d565b61366860c083018661276d565b61367560e0830185612764565b613683610100830184612764565b9a9950505050505050505050565b604081016131b1828561276d565b60405181810167ffffffffffffffff811182821017156136be57600080fd5b604052919050565b600067ffffffffffffffff8211156136dd57600080fd5b5060209081020190565b600067ffffffffffffffff8211156136fe57600080fd5b506020601f91909101601f19160190565b60200190565b60009081526020902090565b5190565b90815260200190565b60006117e882613748565b151590565b80610af3816137db565b6001600160a01b031690565b60ff1690565b6001600160601b031690565b60006117e8825b60006117e88261372e565b60006117e88261373e565b60006117e882610570565b60006117e88261375a565b82818337506000910152565b60005b838110156137c05781810151838201526020016137a8565b838111156110aa5750506000910152565b601f01601f191690565b6008811061205b57fe5b6137ee8161372e565b811461205b57600080fd5b6137ee81613739565b6137ee81610570565b6137ee81613754565b6137ee8161375a56fea365627a7a723158202f1a4c527923fefafdd9a11c49c3132de8b237f7219db13fba069ee8a35e61296c6578706572696d656e74616cf564736f6c63430005100040",
  "source": "/**\n *Submitted for verification at Etherscan.io on 2020-03-04\n*/\n\npragma solidity ^0.5.16;\npragma experimental ABIEncoderV2;\n\ncontract GovernorAlphaGodMode {\n    /// @notice The name of this contract\n    string public constant name = \"Compound Governor Alpha\";\n\n    /// @notice The number of votes in support of a proposal required in order for a quorum to be reached and for a vote to succeed\n    function quorumVotes() public pure returns (uint) { return 400000e18; } // 400,000 = 4% of Comp\n\n    /// @notice The number of votes required in order for a voter to become a proposer\n    function proposalThreshold() public pure returns (uint) { return 100000e18; } // 100,000 = 1% of Comp\n\n    /// @notice The maximum number of actions that can be included in a proposal\n    function proposalMaxOperations() public pure returns (uint) { return 10; } // 10 actions\n\n    /// @notice The delay before voting on a proposal may take place, once proposed\n    function votingDelay() public pure returns (uint) { return 1; } // 1 block\n\n    /// @notice The duration of voting on a proposal, in blocks\n    function votingPeriod() public pure returns (uint) { return 17280; } // ~3 days in blocks (assuming 15s blocks)\n\n    /// @notice The address of the Compound Protocol Timelock\n    TimelockInterface public timelock;\n\n    /// @notice The address of the Compound governance token\n    CompInterface public comp;\n\n    /// @notice The address of the Governor Guardian\n    address public guardian;\n\n    /// @notice The total number of proposals\n    uint public proposalCount;\n\n    struct Proposal {\n        /// @notice Unique id for looking up a proposal\n        uint id;\n\n        /// @notice Creator of the proposal\n        address proposer;\n\n        /// @notice The timestamp that the proposal will be available for execution, set once the vote succeeds\n        uint eta;\n\n        /// @notice the ordered list of target addresses for calls to be made\n        address[] targets;\n\n        /// @notice The ordered list of values (i.e. msg.value) to be passed to the calls to be made\n        uint[] values;\n\n        /// @notice The ordered list of function signatures to be called\n        string[] signatures;\n\n        /// @notice The ordered list of calldata to be passed to each call\n        bytes[] calldatas;\n\n        /// @notice The block at which voting begins: holders must delegate their votes prior to this block\n        uint startBlock;\n\n        /// @notice The block at which voting ends: votes must be cast prior to this block\n        uint endBlock;\n\n        /// @notice Current number of votes in favor of this proposal\n        uint forVotes;\n\n        /// @notice Current number of votes in opposition to this proposal\n        uint againstVotes;\n\n        /// @notice Flag marking whether the proposal has been canceled\n        bool canceled;\n\n        /// @notice Flag marking whether the proposal has been executed\n        bool executed;\n\n        /// @notice Receipts of ballots for the entire set of voters\n        mapping (address => Receipt) receipts;\n    }\n\n    /// @notice Ballot receipt record for a voter\n    struct Receipt {\n        /// @notice Whether or not a vote has been cast\n        bool hasVoted;\n\n        /// @notice Whether or not the voter supports the proposal\n        bool support;\n\n        /// @notice The number of votes the voter had, which were cast\n        uint96 votes;\n    }\n\n    /// @notice Possible states that a proposal may be in\n    enum ProposalState {\n        Pending,\n        Active,\n        Canceled,\n        Defeated,\n        Succeeded,\n        Queued,\n        Expired,\n        Executed\n    }\n\n    /// @notice The official record of all proposals ever proposed\n    mapping (uint => Proposal) public proposals;\n\n    /// @notice The latest proposal for each proposer\n    mapping (address => uint) public latestProposalIds;\n\n    /// @notice The EIP-712 typehash for the contract's domain\n    bytes32 public constant DOMAIN_TYPEHASH = keccak256(\"EIP712Domain(string name,uint256 chainId,address verifyingContract)\");\n\n    /// @notice The EIP-712 typehash for the ballot struct used by the contract\n    bytes32 public constant BALLOT_TYPEHASH = keccak256(\"Ballot(uint256 proposalId,bool support)\");\n\n    /// @notice An event emitted when a new proposal is created\n    event ProposalCreated(uint id, address proposer, address[] targets, uint[] values, string[] signatures, bytes[] calldatas, uint startBlock, uint endBlock, string description);\n\n    /// @notice An event emitted when a vote has been cast on a proposal\n    event VoteCast(address voter, uint proposalId, bool support, uint votes);\n\n    /// @notice An event emitted when a proposal has been canceled\n    event ProposalCanceled(uint id);\n\n    /// @notice An event emitted when a proposal has been queued in the Timelock\n    event ProposalQueued(uint id, uint eta);\n\n    /// @notice An event emitted when a proposal has been executed in the Timelock\n    event ProposalExecuted(uint id);\n\n    constructor(address timelock_, address comp_, address guardian_) public {\n        timelock = TimelockInterface(timelock_);\n        comp = CompInterface(comp_);\n        guardian = guardian_;\n    }\n\n    function setTimelock(address _timelock) public {\n        timelock = TimelockInterface(_timelock);\n    }\n\n    function propose(address[] memory targets, uint[] memory values, string[] memory signatures, bytes[] memory calldatas, string memory description) public returns (uint) {\n        require(comp.getPriorVotes(msg.sender, sub256(block.number, 1)) > proposalThreshold(), \"GovernorAlpha::propose: proposer votes below proposal threshold\");\n        require(targets.length == values.length && targets.length == signatures.length && targets.length == calldatas.length, \"GovernorAlpha::propose: proposal function information arity mismatch\");\n        require(targets.length != 0, \"GovernorAlpha::propose: must provide actions\");\n        require(targets.length <= proposalMaxOperations(), \"GovernorAlpha::propose: too many actions\");\n\n        uint latestProposalId = latestProposalIds[msg.sender];\n        if (latestProposalId != 0) {\n          ProposalState proposersLatestProposalState = state(latestProposalId);\n          require(proposersLatestProposalState != ProposalState.Active, \"GovernorAlpha::propose: one live proposal per proposer, found an already active proposal\");\n          require(proposersLatestProposalState != ProposalState.Pending, \"GovernorAlpha::propose: one live proposal per proposer, found an already pending proposal\");\n        }\n\n        uint startBlock = add256(block.number, votingDelay());\n        uint endBlock = add256(startBlock, votingPeriod());\n\n        proposalCount++;\n        Proposal memory newProposal = Proposal({\n            id: proposalCount,\n            proposer: msg.sender,\n            eta: 0,\n            targets: targets,\n            values: values,\n            signatures: signatures,\n            calldatas: calldatas,\n            startBlock: startBlock,\n            endBlock: endBlock,\n            forVotes: 0,\n            againstVotes: 0,\n            canceled: false,\n            executed: false\n        });\n\n        proposals[newProposal.id] = newProposal;\n        latestProposalIds[newProposal.proposer] = newProposal.id;\n\n        emit ProposalCreated(newProposal.id, msg.sender, targets, values, signatures, calldatas, startBlock, endBlock, description);\n        return newProposal.id;\n    }\n\n    function queue(uint proposalId) public {\n        require(state(proposalId) == ProposalState.Succeeded, \"GovernorAlpha::queue: proposal can only be queued if it is succeeded\");\n        Proposal storage proposal = proposals[proposalId];\n        uint eta = add256(block.timestamp, timelock.delay());\n        for (uint i = 0; i < proposal.targets.length; i++) {\n            _queueOrRevert(proposal.targets[i], proposal.values[i], proposal.signatures[i], proposal.calldatas[i], eta);\n        }\n        proposal.eta = eta;\n        emit ProposalQueued(proposalId, eta);\n    }\n\n    function _queueOrRevert(address target, uint value, string memory signature, bytes memory data, uint eta) internal {\n        require(!timelock.queuedTransactions(keccak256(abi.encode(target, value, signature, data, eta))), \"GovernorAlpha::_queueOrRevert: proposal action already queued at eta\");\n        timelock.queueTransaction(target, value, signature, data, eta);\n    }\n\n    function execute(uint proposalId) public payable {\n        require(state(proposalId) == ProposalState.Queued, \"GovernorAlpha::execute: proposal can only be executed if it is queued\");\n        Proposal storage proposal = proposals[proposalId];\n        proposal.executed = true;\n        for (uint i = 0; i < proposal.targets.length; i++) {\n            timelock.executeTransaction.value(proposal.values[i])(proposal.targets[i], proposal.values[i], proposal.signatures[i], proposal.calldatas[i], proposal.eta);\n        }\n        emit ProposalExecuted(proposalId);\n    }\n\n    function cancel(uint proposalId) public {\n        ProposalState state = state(proposalId);\n        require(state != ProposalState.Executed, \"GovernorAlpha::cancel: cannot cancel executed proposal\");\n\n        Proposal storage proposal = proposals[proposalId];\n        require(msg.sender == guardian || comp.getPriorVotes(proposal.proposer, sub256(block.number, 1)) < proposalThreshold(), \"GovernorAlpha::cancel: proposer above threshold\");\n\n        proposal.canceled = true;\n        for (uint i = 0; i < proposal.targets.length; i++) {\n            timelock.cancelTransaction(proposal.targets[i], proposal.values[i], proposal.signatures[i], proposal.calldatas[i], proposal.eta);\n        }\n\n        emit ProposalCanceled(proposalId);\n    }\n\n    function getActions(uint proposalId) public view returns (address[] memory targets, uint[] memory values, string[] memory signatures, bytes[] memory calldatas) {\n        Proposal storage p = proposals[proposalId];\n        return (p.targets, p.values, p.signatures, p.calldatas);\n    }\n\n    function getReceipt(uint proposalId, address voter) public view returns (Receipt memory) {\n        return proposals[proposalId].receipts[voter];\n    }\n\n    function state(uint proposalId) public view returns (ProposalState) {\n        require(proposalCount >= proposalId && proposalId > 0, \"GovernorAlpha::state: invalid proposal id\");\n        Proposal storage proposal = proposals[proposalId];\n        if (proposal.canceled) {\n            return ProposalState.Canceled;\n        } else if (block.number <= proposal.startBlock) {\n            return ProposalState.Pending;\n        } else if (block.number <= proposal.endBlock) {\n            return ProposalState.Active;\n        } else if (proposal.forVotes <= proposal.againstVotes || proposal.forVotes < quorumVotes()) {\n            return ProposalState.Defeated;\n        } else if (proposal.eta == 0) {\n            return ProposalState.Succeeded;\n        } else if (proposal.executed) {\n            return ProposalState.Executed;\n        } else if (block.timestamp >= add256(proposal.eta, timelock.GRACE_PERIOD())) {\n            return ProposalState.Expired;\n        } else {\n            return ProposalState.Queued;\n        }\n    }\n\n    function castVote(uint proposalId, bool support) public {\n        return _castVote(msg.sender, proposalId, support);\n    }\n\n    function castVoteBySig(uint proposalId, bool support, uint8 v, bytes32 r, bytes32 s) public {\n        bytes32 domainSeparator = keccak256(abi.encode(DOMAIN_TYPEHASH, keccak256(bytes(name)), getChainId(), address(this)));\n        bytes32 structHash = keccak256(abi.encode(BALLOT_TYPEHASH, proposalId, support));\n        bytes32 digest = keccak256(abi.encodePacked(\"\\x19\\x01\", domainSeparator, structHash));\n        address signatory = ecrecover(digest, v, r, s);\n        require(signatory != address(0), \"GovernorAlpha::castVoteBySig: invalid signature\");\n        return _castVote(signatory, proposalId, support);\n    }\n\n    function _castVote(address voter, uint proposalId, bool support) internal {\n        require(state(proposalId) == ProposalState.Active, \"GovernorAlpha::_castVote: voting is closed\");\n        Proposal storage proposal = proposals[proposalId];\n        Receipt storage receipt = proposal.receipts[voter];\n        require(receipt.hasVoted == false, \"GovernorAlpha::_castVote: voter already voted\");\n        uint96 votes = comp.getPriorVotes(voter, proposal.startBlock);\n\n        if (support) {\n            proposal.forVotes = add256(proposal.forVotes, votes);\n        } else {\n            proposal.againstVotes = add256(proposal.againstVotes, votes);\n        }\n\n        receipt.hasVoted = true;\n        receipt.support = support;\n        receipt.votes = votes;\n\n        emit VoteCast(voter, proposalId, support, votes);\n    }\n\n    function __acceptAdmin() public {\n        require(msg.sender == guardian, \"GovernorAlpha::__acceptAdmin: sender must be gov guardian\");\n        timelock.acceptAdmin();\n    }\n\n    function __abdicate() public {\n        require(msg.sender == guardian, \"GovernorAlpha::__abdicate: sender must be gov guardian\");\n        guardian = address(0);\n    }\n\n    function __queueSetTimelockPendingAdmin(address newPendingAdmin, uint eta) public {\n        require(msg.sender == guardian, \"GovernorAlpha::__queueSetTimelockPendingAdmin: sender must be gov guardian\");\n        timelock.queueTransaction(address(timelock), 0, \"setPendingAdmin(address)\", abi.encode(newPendingAdmin), eta);\n    }\n\n    function __executeSetTimelockPendingAdmin(address newPendingAdmin, uint eta) public {\n        require(msg.sender == guardian, \"GovernorAlpha::__executeSetTimelockPendingAdmin: sender must be gov guardian\");\n        timelock.executeTransaction(address(timelock), 0, \"setPendingAdmin(address)\", abi.encode(newPendingAdmin), eta);\n    }\n\n    function add256(uint256 a, uint256 b) internal pure returns (uint) {\n        uint c = a + b;\n        require(c >= a, \"addition overflow\");\n        return c;\n    }\n\n    function sub256(uint256 a, uint256 b) internal pure returns (uint) {\n        require(b <= a, \"subtraction underflow\");\n        return a - b;\n    }\n\n    function getChainId() internal pure returns (uint) {\n        uint chainId;\n        assembly { chainId := chainid() }\n        return chainId;\n    }\n}\n\ninterface TimelockInterface {\n    function delay() external view returns (uint);\n    function GRACE_PERIOD() external view returns (uint);\n    function acceptAdmin() external;\n    function queuedTransactions(bytes32 hash) external view returns (bool);\n    function queueTransaction(address target, uint value, string calldata signature, bytes calldata data, uint eta) external returns (bytes32);\n    function cancelTransaction(address target, uint value, string calldata signature, bytes calldata data, uint eta) external;\n    function executeTransaction(address target, uint value, string calldata signature, bytes calldata data, uint eta) external payable returns (bytes memory);\n}\n\ninterface CompInterface {\n    function getPriorVotes(address account, uint blockNumber) external view returns (uint96);\n}",
  "sourcePath": "/home/belvis/ethereum/UNI-ETH-pool-proposal/contracts/solidityV5/GovernorAlphaGodMode.sol",
  "compiler": {
    "name": "solc",
    "version": "0.5.16+commit.9c3226ce.Emscripten.clang"
  },
  "schemaVersion": "3.2.2-next.0",
  "updatedAt": "2020-10-22T07:36:26.875Z",
  "devdoc": {
    "methods": {}
  },
  "userdoc": {
    "methods": {
      "proposalMaxOperations()": {
        "notice": "The maximum number of actions that can be included in a proposal"
      },
      "proposalThreshold()": {
        "notice": "The number of votes required in order for a voter to become a proposer"
      },
      "quorumVotes()": {
        "notice": "The number of votes in support of a proposal required in order for a quorum to be reached and for a vote to succeed"
      },
      "votingDelay()": {
        "notice": "The delay before voting on a proposal may take place, once proposed"
      },
      "votingPeriod()": {
        "notice": "The duration of voting on a proposal, in blocks"
      }
    }
  }
}